{
  "_format": "hh-sol-artifact-1",
  "contractName": "TokenTransferor_v1",
  "sourceName": "contracts/TokenTransferor_v1.sol",
  "abi": [
    {
      "inputs": [
        {
          "internalType": "address",
          "name": "_router",
          "type": "address"
        },
        {
          "internalType": "address",
          "name": "_link",
          "type": "address"
        }
      ],
      "stateMutability": "nonpayable",
      "type": "constructor"
    },
    {
      "inputs": [
        {
          "internalType": "uint64",
          "name": "destinationChainSelector",
          "type": "uint64"
        }
      ],
      "name": "DestinationChainNotAllowlisted",
      "type": "error"
    },
    {
      "inputs": [
        {
          "internalType": "address",
          "name": "owner",
          "type": "address"
        },
        {
          "internalType": "address",
          "name": "target",
          "type": "address"
        },
        {
          "internalType": "uint256",
          "name": "value",
          "type": "uint256"
        }
      ],
      "name": "FailedToWithdrawEth",
      "type": "error"
    },
    {
      "inputs": [],
      "name": "InvalidReceiverAddress",
      "type": "error"
    },
    {
      "inputs": [
        {
          "internalType": "uint256",
          "name": "currentBalance",
          "type": "uint256"
        },
        {
          "internalType": "uint256",
          "name": "calculatedFees",
          "type": "uint256"
        }
      ],
      "name": "NotEnoughBalance",
      "type": "error"
    },
    {
      "inputs": [],
      "name": "NothingToWithdraw",
      "type": "error"
    },
    {
      "anonymous": false,
      "inputs": [
        {
          "indexed": true,
          "internalType": "address",
          "name": "from",
          "type": "address"
        },
        {
          "indexed": true,
          "internalType": "address",
          "name": "to",
          "type": "address"
        }
      ],
      "name": "OwnershipTransferRequested",
      "type": "event"
    },
    {
      "anonymous": false,
      "inputs": [
        {
          "indexed": true,
          "internalType": "address",
          "name": "from",
          "type": "address"
        },
        {
          "indexed": true,
          "internalType": "address",
          "name": "to",
          "type": "address"
        }
      ],
      "name": "OwnershipTransferred",
      "type": "event"
    },
    {
      "anonymous": false,
      "inputs": [
        {
          "indexed": true,
          "internalType": "bytes32",
          "name": "messageId",
          "type": "bytes32"
        },
        {
          "indexed": true,
          "internalType": "uint64",
          "name": "destinationChainSelector",
          "type": "uint64"
        },
        {
          "indexed": false,
          "internalType": "address",
          "name": "receiver",
          "type": "address"
        },
        {
          "indexed": false,
          "internalType": "address",
          "name": "token",
          "type": "address"
        },
        {
          "indexed": false,
          "internalType": "uint256",
          "name": "tokenAmount",
          "type": "uint256"
        },
        {
          "indexed": false,
          "internalType": "address",
          "name": "feeToken",
          "type": "address"
        },
        {
          "indexed": false,
          "internalType": "uint256",
          "name": "fees",
          "type": "uint256"
        }
      ],
      "name": "TokensTransferred",
      "type": "event"
    },
    {
      "inputs": [],
      "name": "acceptOwnership",
      "outputs": [],
      "stateMutability": "nonpayable",
      "type": "function"
    },
    {
      "inputs": [
        {
          "internalType": "uint64",
          "name": "_destinationChainSelector",
          "type": "uint64"
        },
        {
          "internalType": "bool",
          "name": "allowed",
          "type": "bool"
        }
      ],
      "name": "allowlistDestinationChain",
      "outputs": [],
      "stateMutability": "nonpayable",
      "type": "function"
    },
    {
      "inputs": [
        {
          "internalType": "uint64",
          "name": "",
          "type": "uint64"
        }
      ],
      "name": "allowlistedChains",
      "outputs": [
        {
          "internalType": "bool",
          "name": "",
          "type": "bool"
        }
      ],
      "stateMutability": "view",
      "type": "function"
    },
    {
      "inputs": [],
      "name": "owner",
      "outputs": [
        {
          "internalType": "address",
          "name": "",
          "type": "address"
        }
      ],
      "stateMutability": "view",
      "type": "function"
    },
    {
      "inputs": [
        {
          "internalType": "address",
          "name": "to",
          "type": "address"
        }
      ],
      "name": "transferOwnership",
      "outputs": [],
      "stateMutability": "nonpayable",
      "type": "function"
    },
    {
      "inputs": [
        {
          "internalType": "uint64",
          "name": "_destinationChainSelector",
          "type": "uint64"
        },
        {
          "internalType": "address",
          "name": "_receiver",
          "type": "address"
        },
        {
          "internalType": "address",
          "name": "_token",
          "type": "address"
        },
        {
          "internalType": "uint256",
          "name": "_amount",
          "type": "uint256"
        }
      ],
      "name": "transferTokensPayLINK",
      "outputs": [
        {
          "internalType": "bytes32",
          "name": "messageId",
          "type": "bytes32"
        }
      ],
      "stateMutability": "nonpayable",
      "type": "function"
    },
    {
      "inputs": [
        {
          "internalType": "uint64",
          "name": "_destinationChainSelector",
          "type": "uint64"
        },
        {
          "internalType": "address",
          "name": "_receiver",
          "type": "address"
        },
        {
          "internalType": "address",
          "name": "_token",
          "type": "address"
        },
        {
          "internalType": "uint256",
          "name": "_amount",
          "type": "uint256"
        }
      ],
      "name": "transferTokensPayNative",
      "outputs": [
        {
          "internalType": "bytes32",
          "name": "messageId",
          "type": "bytes32"
        }
      ],
      "stateMutability": "nonpayable",
      "type": "function"
    },
    {
      "inputs": [
        {
          "internalType": "address",
          "name": "_beneficiary",
          "type": "address"
        }
      ],
      "name": "withdraw",
      "outputs": [],
      "stateMutability": "nonpayable",
      "type": "function"
    },
    {
      "inputs": [
        {
          "internalType": "address",
          "name": "_beneficiary",
          "type": "address"
        },
        {
          "internalType": "address",
          "name": "_token",
          "type": "address"
        }
      ],
      "name": "withdrawToken",
      "outputs": [],
      "stateMutability": "nonpayable",
      "type": "function"
    },
    {
      "stateMutability": "payable",
      "type": "receive"
    }
  ],
  "bytecode": "0x608060405234801561001057600080fd5b5060405161266138038061266183398181016040528101906100329190610343565b338060008073ffffffffffffffffffffffffffffffffffffffff168273ffffffffffffffffffffffffffffffffffffffff16036100a4576040517f08c379a000000000000000000000000000000000000000000000000000000000815260040161009b906103e0565b60405180910390fd5b816000806101000a81548173ffffffffffffffffffffffffffffffffffffffff021916908373ffffffffffffffffffffffffffffffffffffffff160217905550600073ffffffffffffffffffffffffffffffffffffffff168173ffffffffffffffffffffffffffffffffffffffff161461012857610127816101b460201b60201c565b5b50505081600360006101000a81548173ffffffffffffffffffffffffffffffffffffffff021916908373ffffffffffffffffffffffffffffffffffffffff16021790555080600460006101000a81548173ffffffffffffffffffffffffffffffffffffffff021916908373ffffffffffffffffffffffffffffffffffffffff160217905550505061046c565b3373ffffffffffffffffffffffffffffffffffffffff168173ffffffffffffffffffffffffffffffffffffffff1603610222576040517f08c379a00000000000000000000000000000000000000000000000000000000081526004016102199061044c565b60405180910390fd5b80600160006101000a81548173ffffffffffffffffffffffffffffffffffffffff021916908373ffffffffffffffffffffffffffffffffffffffff1602179055508073ffffffffffffffffffffffffffffffffffffffff1660008054906101000a900473ffffffffffffffffffffffffffffffffffffffff1673ffffffffffffffffffffffffffffffffffffffff167fed8889f560326eb138920d842192f0eb3dd22b4f139c87a2c57538e05bae127860405160405180910390a350565b600080fd5b600073ffffffffffffffffffffffffffffffffffffffff82169050919050565b6000610310826102e5565b9050919050565b61032081610305565b811461032b57600080fd5b50565b60008151905061033d81610317565b92915050565b6000806040838503121561035a576103596102e0565b5b60006103688582860161032e565b92505060206103798582860161032e565b9150509250929050565b600082825260208201905092915050565b7f43616e6e6f7420736574206f776e657220746f207a65726f0000000000000000600082015250565b60006103ca601883610383565b91506103d582610394565b602082019050919050565b600060208201905081810360008301526103f9816103bd565b9050919050565b7f43616e6e6f74207472616e7366657220746f2073656c66000000000000000000600082015250565b6000610436601783610383565b915061044182610400565b602082019050919050565b6000602082019050818103600083015261046581610429565b9050919050565b6121e68061047b6000396000f3fe60806040526004361061008a5760003560e01c806379ba50971161005957806379ba5097146101625780638da5cb5b1461017957806395e1402c146101a457806396d3b83d146101e1578063f2fde38b1461020a57610091565b80630bb106eb146100965780633aeac4e1146100d357806351419b4b146100fc57806351cff8d91461013957610091565b3661009157005b600080fd5b3480156100a257600080fd5b506100bd60048036038101906100b89190611668565b610233565b6040516100ca91906116b0565b60405180910390f35b3480156100df57600080fd5b506100fa60048036038101906100f59190611729565b610253565b005b34801561010857600080fd5b50610123600480360381019061011e919061179f565b610343565b604051610130919061181f565b60405180910390f35b34801561014557600080fd5b50610160600480360381019061015b919061183a565b6106c7565b005b34801561016e57600080fd5b506101776107c5565b005b34801561018557600080fd5b5061018e61095a565b60405161019b9190611876565b60405180910390f35b3480156101b057600080fd5b506101cb60048036038101906101c6919061179f565b610983565b6040516101d8919061181f565b60405180910390f35b3480156101ed57600080fd5b50610208600480360381019061020391906118bd565b610f3b565b005b34801561021657600080fd5b50610231600480360381019061022c919061183a565b610f86565b005b60026020528060005260406000206000915054906101000a900460ff1681565b61025b610f9a565b60008173ffffffffffffffffffffffffffffffffffffffff166370a08231306040518263ffffffff1660e01b81526004016102969190611876565b602060405180830381865afa1580156102b3573d6000803e3d6000fd5b505050506040513d601f19601f820116820180604052508101906102d79190611912565b905060008103610313576040517fd0d04f6000000000000000000000000000000000000000000000000000000000815260040160405180910390fd5b61033e83828473ffffffffffffffffffffffffffffffffffffffff1661102a9092919063ffffffff16565b505050565b600061034d610f9a565b84600260008267ffffffffffffffff1667ffffffffffffffff16815260200190815260200160002060009054906101000a900460ff166103c457806040517f0a503cdb0000000000000000000000000000000000000000000000000000000081526004016103bb919061194e565b60405180910390fd5b84600073ffffffffffffffffffffffffffffffffffffffff168173ffffffffffffffffffffffffffffffffffffffff160361042b576040517fa05ff47e00000000000000000000000000000000000000000000000000000000815260040160405180910390fd5b600061043a87878760006110b0565b90506000600360009054906101000a900473ffffffffffffffffffffffffffffffffffffffff1673ffffffffffffffffffffffffffffffffffffffff166320487ded8a846040518363ffffffff1660e01b815260040161049b929190611b80565b602060405180830381865afa1580156104b8573d6000803e3d6000fd5b505050506040513d601f19601f820116820180604052508101906104dc9190611912565b9050478111156105255747816040517f8f0f420600000000000000000000000000000000000000000000000000000000815260040161051c929190611bbf565b60405180910390fd5b8673ffffffffffffffffffffffffffffffffffffffff1663095ea7b3600360009054906101000a900473ffffffffffffffffffffffffffffffffffffffff16886040518363ffffffff1660e01b8152600401610582929190611be8565b6020604051808303816000875af11580156105a1573d6000803e3d6000fd5b505050506040513d601f19601f820116820180604052508101906105c59190611c26565b50600360009054906101000a900473ffffffffffffffffffffffffffffffffffffffff1673ffffffffffffffffffffffffffffffffffffffff166396f4e9f9826207a120908c866040518563ffffffff1660e01b8152600401610629929190611b80565b602060405180830381858988f1158015610647573d6000803e3d6000fd5b5050505050506040513d601f19601f8201168201806040525081019061066d9190611c7f565b94508867ffffffffffffffff16857fc15fb748c32ba4eb29c1c311e78533f93b4425eab49ea87c6fe4279ecadca0438a8a8a6000876040516106b3959493929190611cac565b60405180910390a350505050949350505050565b6106cf610f9a565b60004790506000810361070e576040517fd0d04f6000000000000000000000000000000000000000000000000000000000815260040160405180910390fd5b60008273ffffffffffffffffffffffffffffffffffffffff168260405161073490611d30565b60006040518083038185875af1925050503d8060008114610771576040519150601f19603f3d011682016040523d82523d6000602084013e610776565b606091505b50509050806107c0573383836040517f9d11f5630000000000000000000000000000000000000000000000000000000081526004016107b793929190611d45565b60405180910390fd5b505050565b600160009054906101000a900473ffffffffffffffffffffffffffffffffffffffff1673ffffffffffffffffffffffffffffffffffffffff163373ffffffffffffffffffffffffffffffffffffffff1614610855576040517f08c379a000000000000000000000000000000000000000000000000000000000815260040161084c90611dd9565b60405180910390fd5b60008060009054906101000a900473ffffffffffffffffffffffffffffffffffffffff169050336000806101000a81548173ffffffffffffffffffffffffffffffffffffffff021916908373ffffffffffffffffffffffffffffffffffffffff1602179055506000600160006101000a81548173ffffffffffffffffffffffffffffffffffffffff021916908373ffffffffffffffffffffffffffffffffffffffff1602179055503373ffffffffffffffffffffffffffffffffffffffff168173ffffffffffffffffffffffffffffffffffffffff167f8be0079c531659141344cd1fd0a4f28419497f9722a3daafe3b4186f6b6457e060405160405180910390a350565b60008060009054906101000a900473ffffffffffffffffffffffffffffffffffffffff16905090565b600061098d610f9a565b84600260008267ffffffffffffffff1667ffffffffffffffff16815260200190815260200160002060009054906101000a900460ff16610a0457806040517f0a503cdb0000000000000000000000000000000000000000000000000000000081526004016109fb919061194e565b60405180910390fd5b84600073ffffffffffffffffffffffffffffffffffffffff168173ffffffffffffffffffffffffffffffffffffffff1603610a6b576040517fa05ff47e00000000000000000000000000000000000000000000000000000000815260040160405180910390fd5b6000610a9b878787600460009054906101000a900473ffffffffffffffffffffffffffffffffffffffff166110b0565b90506000600360009054906101000a900473ffffffffffffffffffffffffffffffffffffffff1673ffffffffffffffffffffffffffffffffffffffff166320487ded8a846040518363ffffffff1660e01b8152600401610afc929190611b80565b602060405180830381865afa158015610b19573d6000803e3d6000fd5b505050506040513d601f19601f82011682018060405250810190610b3d9190611912565b9050600460009054906101000a900473ffffffffffffffffffffffffffffffffffffffff1673ffffffffffffffffffffffffffffffffffffffff166370a08231306040518263ffffffff1660e01b8152600401610b9a9190611876565b602060405180830381865afa158015610bb7573d6000803e3d6000fd5b505050506040513d601f19601f82011682018060405250810190610bdb9190611912565b811115610cbc57600460009054906101000a900473ffffffffffffffffffffffffffffffffffffffff1673ffffffffffffffffffffffffffffffffffffffff166370a08231306040518263ffffffff1660e01b8152600401610c3d9190611876565b602060405180830381865afa158015610c5a573d6000803e3d6000fd5b505050506040513d601f19601f82011682018060405250810190610c7e9190611912565b816040517f8f0f4206000000000000000000000000000000000000000000000000000000008152600401610cb3929190611bbf565b60405180910390fd5b600460009054906101000a900473ffffffffffffffffffffffffffffffffffffffff1673ffffffffffffffffffffffffffffffffffffffff1663095ea7b3600360009054906101000a900473ffffffffffffffffffffffffffffffffffffffff16836040518363ffffffff1660e01b8152600401610d3b929190611be8565b6020604051808303816000875af1158015610d5a573d6000803e3d6000fd5b505050506040513d601f19601f82011682018060405250810190610d7e9190611c26565b508673ffffffffffffffffffffffffffffffffffffffff1663095ea7b3600360009054906101000a900473ffffffffffffffffffffffffffffffffffffffff16886040518363ffffffff1660e01b8152600401610ddc929190611be8565b6020604051808303816000875af1158015610dfb573d6000803e3d6000fd5b505050506040513d601f19601f82011682018060405250810190610e1f9190611c26565b50600360009054906101000a900473ffffffffffffffffffffffffffffffffffffffff1673ffffffffffffffffffffffffffffffffffffffff166396f4e9f98a846040518363ffffffff1660e01b8152600401610e7d929190611b80565b6020604051808303816000875af1158015610e9c573d6000803e3d6000fd5b505050506040513d601f19601f82011682018060405250810190610ec09190611c7f565b94508867ffffffffffffffff16857fc15fb748c32ba4eb29c1c311e78533f93b4425eab49ea87c6fe4279ecadca0438a8a8a600460009054906101000a900473ffffffffffffffffffffffffffffffffffffffff1687604051610f27959493929190611cac565b60405180910390a350505050949350505050565b610f43610f9a565b80600260008467ffffffffffffffff1667ffffffffffffffff16815260200190815260200160002060006101000a81548160ff0219169083151502179055505050565b610f8e610f9a565b610f97816111ee565b50565b60008054906101000a900473ffffffffffffffffffffffffffffffffffffffff1673ffffffffffffffffffffffffffffffffffffffff163373ffffffffffffffffffffffffffffffffffffffff1614611028576040517f08c379a000000000000000000000000000000000000000000000000000000000815260040161101f90611e45565b60405180910390fd5b565b6110ab8363a9059cbb60e01b8484604051602401611049929190611be8565b604051602081830303815290604052907bffffffffffffffffffffffffffffffffffffffffffffffffffffffff19166020820180517bffffffffffffffffffffffffffffffffffffffffffffffffffffffff838183161783525050505061131a565b505050565b6110b86115ae565b6000600167ffffffffffffffff8111156110d5576110d4611e65565b5b60405190808252806020026020018201604052801561110e57816020015b6110fb6115f3565b8152602001906001900390816110f35790505b50905060405180604001604052808673ffffffffffffffffffffffffffffffffffffffff16815260200185815250816000815181106111505761114f611e94565b5b60200260200101819052506040518060a00160405280876040516020016111779190611876565b604051602081830303815290604052815260200160405160200161119a90611ee6565b60405160208183030381529060405281526020018281526020018473ffffffffffffffffffffffffffffffffffffffff16815260200160405180602001604052806000815250815250915050949350505050565b3373ffffffffffffffffffffffffffffffffffffffff168173ffffffffffffffffffffffffffffffffffffffff160361125c576040517f08c379a000000000000000000000000000000000000000000000000000000000815260040161125390611f52565b60405180910390fd5b80600160006101000a81548173ffffffffffffffffffffffffffffffffffffffff021916908373ffffffffffffffffffffffffffffffffffffffff1602179055508073ffffffffffffffffffffffffffffffffffffffff1660008054906101000a900473ffffffffffffffffffffffffffffffffffffffff1673ffffffffffffffffffffffffffffffffffffffff167fed8889f560326eb138920d842192f0eb3dd22b4f139c87a2c57538e05bae127860405160405180910390a350565b600061137c826040518060400160405280602081526020017f5361666545524332303a206c6f772d6c6576656c2063616c6c206661696c65648152508573ffffffffffffffffffffffffffffffffffffffff166113e19092919063ffffffff16565b90506000815111156113dc578080602001905181019061139c9190611c26565b6113db576040517f08c379a00000000000000000000000000000000000000000000000000000000081526004016113d290611fe4565b60405180910390fd5b5b505050565b60606113f084846000856113f9565b90509392505050565b60608247101561143e576040517f08c379a000000000000000000000000000000000000000000000000000000000815260040161143590612076565b60405180910390fd5b6000808673ffffffffffffffffffffffffffffffffffffffff16858760405161146791906120c7565b60006040518083038185875af1925050503d80600081146114a4576040519150601f19603f3d011682016040523d82523d6000602084013e6114a9565b606091505b50915091506114ba878383876114c6565b92505050949350505050565b60608315611528576000835103611520576114e08561153b565b61151f576040517f08c379a00000000000000000000000000000000000000000000000000000000081526004016115169061212a565b60405180910390fd5b5b829050611533565b611532838361155e565b5b949350505050565b6000808273ffffffffffffffffffffffffffffffffffffffff163b119050919050565b6000825111156115715781518083602001fd5b806040517f08c379a00000000000000000000000000000000000000000000000000000000081526004016115a5919061218e565b60405180910390fd5b6040518060a00160405280606081526020016060815260200160608152602001600073ffffffffffffffffffffffffffffffffffffffff168152602001606081525090565b6040518060400160405280600073ffffffffffffffffffffffffffffffffffffffff168152602001600081525090565b600080fd5b600067ffffffffffffffff82169050919050565b61164581611628565b811461165057600080fd5b50565b6000813590506116628161163c565b92915050565b60006020828403121561167e5761167d611623565b5b600061168c84828501611653565b91505092915050565b60008115159050919050565b6116aa81611695565b82525050565b60006020820190506116c560008301846116a1565b92915050565b600073ffffffffffffffffffffffffffffffffffffffff82169050919050565b60006116f6826116cb565b9050919050565b611706816116eb565b811461171157600080fd5b50565b600081359050611723816116fd565b92915050565b600080604083850312156117405761173f611623565b5b600061174e85828601611714565b925050602061175f85828601611714565b9150509250929050565b6000819050919050565b61177c81611769565b811461178757600080fd5b50565b60008135905061179981611773565b92915050565b600080600080608085870312156117b9576117b8611623565b5b60006117c787828801611653565b94505060206117d887828801611714565b93505060406117e987828801611714565b92505060606117fa8782880161178a565b91505092959194509250565b6000819050919050565b61181981611806565b82525050565b60006020820190506118346000830184611810565b92915050565b6000602082840312156118505761184f611623565b5b600061185e84828501611714565b91505092915050565b611870816116eb565b82525050565b600060208201905061188b6000830184611867565b92915050565b61189a81611695565b81146118a557600080fd5b50565b6000813590506118b781611891565b92915050565b600080604083850312156118d4576118d3611623565b5b60006118e285828601611653565b92505060206118f3858286016118a8565b9150509250929050565b60008151905061190c81611773565b92915050565b60006020828403121561192857611927611623565b5b6000611936848285016118fd565b91505092915050565b61194881611628565b82525050565b6000602082019050611963600083018461193f565b92915050565b600081519050919050565b600082825260208201905092915050565b60005b838110156119a3578082015181840152602081019050611988565b60008484015250505050565b6000601f19601f8301169050919050565b60006119cb82611969565b6119d58185611974565b93506119e5818560208601611985565b6119ee816119af565b840191505092915050565b600081519050919050565b600082825260208201905092915050565b6000819050602082019050919050565b611a2e816116eb565b82525050565b611a3d81611769565b82525050565b604082016000820151611a596000850182611a25565b506020820151611a6c6020850182611a34565b50505050565b6000611a7e8383611a43565b60408301905092915050565b6000602082019050919050565b6000611aa2826119f9565b611aac8185611a04565b9350611ab783611a15565b8060005b83811015611ae8578151611acf8882611a72565b9750611ada83611a8a565b925050600181019050611abb565b5085935050505092915050565b600060a0830160008301518482036000860152611b1282826119c0565b91505060208301518482036020860152611b2c82826119c0565b91505060408301518482036040860152611b468282611a97565b9150506060830151611b5b6060860182611a25565b5060808301518482036080860152611b7382826119c0565b9150508091505092915050565b6000604082019050611b95600083018561193f565b8181036020830152611ba78184611af5565b90509392505050565b611bb981611769565b82525050565b6000604082019050611bd46000830185611bb0565b611be16020830184611bb0565b9392505050565b6000604082019050611bfd6000830185611867565b611c0a6020830184611bb0565b9392505050565b600081519050611c2081611891565b92915050565b600060208284031215611c3c57611c3b611623565b5b6000611c4a84828501611c11565b91505092915050565b611c5c81611806565b8114611c6757600080fd5b50565b600081519050611c7981611c53565b92915050565b600060208284031215611c9557611c94611623565b5b6000611ca384828501611c6a565b91505092915050565b600060a082019050611cc16000830188611867565b611cce6020830187611867565b611cdb6040830186611bb0565b611ce86060830185611867565b611cf56080830184611bb0565b9695505050505050565b600081905092915050565b50565b6000611d1a600083611cff565b9150611d2582611d0a565b600082019050919050565b6000611d3b82611d0d565b9150819050919050565b6000606082019050611d5a6000830186611867565b611d676020830185611867565b611d746040830184611bb0565b949350505050565b600082825260208201905092915050565b7f4d7573742062652070726f706f736564206f776e657200000000000000000000600082015250565b6000611dc3601683611d7c565b9150611dce82611d8d565b602082019050919050565b60006020820190508181036000830152611df281611db6565b9050919050565b7f4f6e6c792063616c6c61626c65206279206f776e657200000000000000000000600082015250565b6000611e2f601683611d7c565b9150611e3a82611df9565b602082019050919050565b60006020820190508181036000830152611e5e81611e22565b9050919050565b7f4e487b7100000000000000000000000000000000000000000000000000000000600052604160045260246000fd5b7f4e487b7100000000000000000000000000000000000000000000000000000000600052603260045260246000fd5b6000611ed0600083611d7c565b9150611edb82611d0a565b600082019050919050565b60006020820190508181036000830152611eff81611ec3565b9050919050565b7f43616e6e6f74207472616e7366657220746f2073656c66000000000000000000600082015250565b6000611f3c601783611d7c565b9150611f4782611f06565b602082019050919050565b60006020820190508181036000830152611f6b81611f2f565b9050919050565b7f5361666545524332303a204552433230206f7065726174696f6e20646964206e60008201527f6f74207375636365656400000000000000000000000000000000000000000000602082015250565b6000611fce602a83611d7c565b9150611fd982611f72565b604082019050919050565b60006020820190508181036000830152611ffd81611fc1565b9050919050565b7f416464726573733a20696e73756666696369656e742062616c616e636520666f60008201527f722063616c6c0000000000000000000000000000000000000000000000000000602082015250565b6000612060602683611d7c565b915061206b82612004565b604082019050919050565b6000602082019050818103600083015261208f81612053565b9050919050565b60006120a182611969565b6120ab8185611cff565b93506120bb818560208601611985565b80840191505092915050565b60006120d38284612096565b915081905092915050565b7f416464726573733a2063616c6c20746f206e6f6e2d636f6e7472616374000000600082015250565b6000612114601d83611d7c565b915061211f826120de565b602082019050919050565b6000602082019050818103600083015261214381612107565b9050919050565b600081519050919050565b60006121608261214a565b61216a8185611d7c565b935061217a818560208601611985565b612183816119af565b840191505092915050565b600060208201905081810360008301526121a88184612155565b90509291505056fea2646970667358221220423d48c88573d013c5d223335a8d0486643e7efa587d6c082a814d5c7f532fdc64736f6c634300081b0033",
  "linkReferences": {},
  "deployedLinkReferences": {}
}