{
  "_format": "hh-sol-artifact-1",
  "contractName": "TokenTransferor_v1",
  "sourceName": "contracts/TokenTransferor_v1.sol",
  "abi": [
    {
      "inputs": [
        {
          "internalType": "address",
          "name": "_router",
          "type": "address"
        },
        {
          "internalType": "address",
          "name": "_link",
          "type": "address"
        }
      ],
      "stateMutability": "nonpayable",
      "type": "constructor"
    },
    {
      "inputs": [
        {
          "internalType": "uint64",
          "name": "destinationChainSelector",
          "type": "uint64"
        }
      ],
      "name": "DestinationChainNotAllowlisted",
      "type": "error"
    },
    {
      "inputs": [
        {
          "internalType": "address",
          "name": "owner",
          "type": "address"
        },
        {
          "internalType": "address",
          "name": "target",
          "type": "address"
        },
        {
          "internalType": "uint256",
          "name": "value",
          "type": "uint256"
        }
      ],
      "name": "FailedToWithdrawEth",
      "type": "error"
    },
    {
      "inputs": [],
      "name": "InvalidReceiverAddress",
      "type": "error"
    },
    {
      "inputs": [
        {
          "internalType": "uint256",
          "name": "currentBalance",
          "type": "uint256"
        },
        {
          "internalType": "uint256",
          "name": "calculatedFees",
          "type": "uint256"
        }
      ],
      "name": "NotEnoughBalance",
      "type": "error"
    },
    {
      "inputs": [],
      "name": "NothingToWithdraw",
      "type": "error"
    },
    {
      "anonymous": false,
      "inputs": [
        {
          "indexed": true,
          "internalType": "address",
          "name": "from",
          "type": "address"
        },
        {
          "indexed": true,
          "internalType": "address",
          "name": "to",
          "type": "address"
        }
      ],
      "name": "OwnershipTransferRequested",
      "type": "event"
    },
    {
      "anonymous": false,
      "inputs": [
        {
          "indexed": true,
          "internalType": "address",
          "name": "from",
          "type": "address"
        },
        {
          "indexed": true,
          "internalType": "address",
          "name": "to",
          "type": "address"
        }
      ],
      "name": "OwnershipTransferred",
      "type": "event"
    },
    {
      "anonymous": false,
      "inputs": [
        {
          "indexed": true,
          "internalType": "bytes32",
          "name": "messageId",
          "type": "bytes32"
        },
        {
          "indexed": true,
          "internalType": "uint64",
          "name": "destinationChainSelector",
          "type": "uint64"
        },
        {
          "indexed": false,
          "internalType": "address",
          "name": "receiver",
          "type": "address"
        },
        {
          "indexed": false,
          "internalType": "address",
          "name": "token",
          "type": "address"
        },
        {
          "indexed": false,
          "internalType": "uint256",
          "name": "tokenAmount",
          "type": "uint256"
        },
        {
          "indexed": false,
          "internalType": "address",
          "name": "feeToken",
          "type": "address"
        },
        {
          "indexed": false,
          "internalType": "uint256",
          "name": "fees",
          "type": "uint256"
        }
      ],
      "name": "TokensTransferred",
      "type": "event"
    },
    {
      "inputs": [],
      "name": "acceptOwnership",
      "outputs": [],
      "stateMutability": "nonpayable",
      "type": "function"
    },
    {
      "inputs": [
        {
          "internalType": "uint64",
          "name": "_destinationChainSelector",
          "type": "uint64"
        },
        {
          "internalType": "bool",
          "name": "allowed",
          "type": "bool"
        }
      ],
      "name": "allowlistDestinationChain",
      "outputs": [],
      "stateMutability": "nonpayable",
      "type": "function"
    },
    {
      "inputs": [
        {
          "internalType": "uint64",
          "name": "",
          "type": "uint64"
        }
      ],
      "name": "allowlistedChains",
      "outputs": [
        {
          "internalType": "bool",
          "name": "",
          "type": "bool"
        }
      ],
      "stateMutability": "view",
      "type": "function"
    },
    {
      "inputs": [],
      "name": "owner",
      "outputs": [
        {
          "internalType": "address",
          "name": "",
          "type": "address"
        }
      ],
      "stateMutability": "view",
      "type": "function"
    },
    {
      "inputs": [
        {
          "internalType": "address",
          "name": "to",
          "type": "address"
        }
      ],
      "name": "transferOwnership",
      "outputs": [],
      "stateMutability": "nonpayable",
      "type": "function"
    },
    {
      "inputs": [
        {
          "internalType": "uint64",
          "name": "_destinationChainSelector",
          "type": "uint64"
        },
        {
          "internalType": "address",
          "name": "_receiver",
          "type": "address"
        },
        {
          "internalType": "address",
          "name": "_token",
          "type": "address"
        },
        {
          "internalType": "uint256",
          "name": "_amount",
          "type": "uint256"
        }
      ],
      "name": "transferTokensPayLINK",
      "outputs": [
        {
          "internalType": "bytes32",
          "name": "messageId",
          "type": "bytes32"
        }
      ],
      "stateMutability": "nonpayable",
      "type": "function"
    },
    {
      "inputs": [
        {
          "internalType": "uint64",
          "name": "_destinationChainSelector",
          "type": "uint64"
        },
        {
          "internalType": "address",
          "name": "_receiver",
          "type": "address"
        },
        {
          "internalType": "address",
          "name": "_token",
          "type": "address"
        },
        {
          "internalType": "uint256",
          "name": "_amount",
          "type": "uint256"
        }
      ],
      "name": "transferTokensPayNative",
      "outputs": [
        {
          "internalType": "bytes32",
          "name": "messageId",
          "type": "bytes32"
        }
      ],
      "stateMutability": "nonpayable",
      "type": "function"
    },
    {
      "inputs": [
        {
          "internalType": "address",
          "name": "_beneficiary",
          "type": "address"
        }
      ],
      "name": "withdraw",
      "outputs": [],
      "stateMutability": "nonpayable",
      "type": "function"
    },
    {
      "inputs": [
        {
          "internalType": "address",
          "name": "_beneficiary",
          "type": "address"
        },
        {
          "internalType": "address",
          "name": "_token",
          "type": "address"
        }
      ],
      "name": "withdrawToken",
      "outputs": [],
      "stateMutability": "nonpayable",
      "type": "function"
    },
    {
      "stateMutability": "payable",
      "type": "receive"
    }
  ],
  "bytecode": "0x608060405234801561001057600080fd5b5060405161265b38038061265b83398181016040528101906100329190610343565b338060008073ffffffffffffffffffffffffffffffffffffffff168273ffffffffffffffffffffffffffffffffffffffff16036100a4576040517f08c379a000000000000000000000000000000000000000000000000000000000815260040161009b906103e0565b60405180910390fd5b816000806101000a81548173ffffffffffffffffffffffffffffffffffffffff021916908373ffffffffffffffffffffffffffffffffffffffff160217905550600073ffffffffffffffffffffffffffffffffffffffff168173ffffffffffffffffffffffffffffffffffffffff161461012857610127816101b460201b60201c565b5b50505081600360006101000a81548173ffffffffffffffffffffffffffffffffffffffff021916908373ffffffffffffffffffffffffffffffffffffffff16021790555080600460006101000a81548173ffffffffffffffffffffffffffffffffffffffff021916908373ffffffffffffffffffffffffffffffffffffffff160217905550505061046c565b3373ffffffffffffffffffffffffffffffffffffffff168173ffffffffffffffffffffffffffffffffffffffff1603610222576040517f08c379a00000000000000000000000000000000000000000000000000000000081526004016102199061044c565b60405180910390fd5b80600160006101000a81548173ffffffffffffffffffffffffffffffffffffffff021916908373ffffffffffffffffffffffffffffffffffffffff1602179055508073ffffffffffffffffffffffffffffffffffffffff1660008054906101000a900473ffffffffffffffffffffffffffffffffffffffff1673ffffffffffffffffffffffffffffffffffffffff167fed8889f560326eb138920d842192f0eb3dd22b4f139c87a2c57538e05bae127860405160405180910390a350565b600080fd5b600073ffffffffffffffffffffffffffffffffffffffff82169050919050565b6000610310826102e5565b9050919050565b61032081610305565b811461032b57600080fd5b50565b60008151905061033d81610317565b92915050565b6000806040838503121561035a576103596102e0565b5b60006103688582860161032e565b92505060206103798582860161032e565b9150509250929050565b600082825260208201905092915050565b7f43616e6e6f7420736574206f776e657220746f207a65726f0000000000000000600082015250565b60006103ca601883610383565b91506103d582610394565b602082019050919050565b600060208201905081810360008301526103f9816103bd565b9050919050565b7f43616e6e6f74207472616e7366657220746f2073656c66000000000000000000600082015250565b6000610436601783610383565b915061044182610400565b602082019050919050565b6000602082019050818103600083015261046581610429565b9050919050565b6121e08061047b6000396000f3fe60806040526004361061008a5760003560e01c806379ba50971161005957806379ba5097146101625780638da5cb5b1461017957806395e1402c146101a457806396d3b83d146101e1578063f2fde38b1461020a57610091565b80630bb106eb146100965780633aeac4e1146100d357806351419b4b146100fc57806351cff8d91461013957610091565b3661009157005b600080fd5b3480156100a257600080fd5b506100bd60048036038101906100b89190611662565b610233565b6040516100ca91906116aa565b60405180910390f35b3480156100df57600080fd5b506100fa60048036038101906100f59190611723565b610253565b005b34801561010857600080fd5b50610123600480360381019061011e9190611799565b610343565b6040516101309190611819565b60405180910390f35b34801561014557600080fd5b50610160600480360381019061015b9190611834565b6106c1565b005b34801561016e57600080fd5b506101776107bf565b005b34801561018557600080fd5b5061018e610954565b60405161019b9190611870565b60405180910390f35b3480156101b057600080fd5b506101cb60048036038101906101c69190611799565b61097d565b6040516101d89190611819565b60405180910390f35b3480156101ed57600080fd5b50610208600480360381019061020391906118b7565b610f35565b005b34801561021657600080fd5b50610231600480360381019061022c9190611834565b610f80565b005b60026020528060005260406000206000915054906101000a900460ff1681565b61025b610f94565b60008173ffffffffffffffffffffffffffffffffffffffff166370a08231306040518263ffffffff1660e01b81526004016102969190611870565b602060405180830381865afa1580156102b3573d6000803e3d6000fd5b505050506040513d601f19601f820116820180604052508101906102d7919061190c565b905060008103610313576040517fd0d04f6000000000000000000000000000000000000000000000000000000000815260040160405180910390fd5b61033e83828473ffffffffffffffffffffffffffffffffffffffff166110249092919063ffffffff16565b505050565b600061034d610f94565b84600260008267ffffffffffffffff1667ffffffffffffffff16815260200190815260200160002060009054906101000a900460ff166103c457806040517f0a503cdb0000000000000000000000000000000000000000000000000000000081526004016103bb9190611948565b60405180910390fd5b84600073ffffffffffffffffffffffffffffffffffffffff168173ffffffffffffffffffffffffffffffffffffffff160361042b576040517fa05ff47e00000000000000000000000000000000000000000000000000000000815260040160405180910390fd5b600061043a87878760006110aa565b90506000600360009054906101000a900473ffffffffffffffffffffffffffffffffffffffff1673ffffffffffffffffffffffffffffffffffffffff166320487ded8a846040518363ffffffff1660e01b815260040161049b929190611b7a565b602060405180830381865afa1580156104b8573d6000803e3d6000fd5b505050506040513d601f19601f820116820180604052508101906104dc919061190c565b9050478111156105255747816040517f8f0f420600000000000000000000000000000000000000000000000000000000815260040161051c929190611bb9565b60405180910390fd5b8673ffffffffffffffffffffffffffffffffffffffff1663095ea7b3600360009054906101000a900473ffffffffffffffffffffffffffffffffffffffff16886040518363ffffffff1660e01b8152600401610582929190611be2565b6020604051808303816000875af11580156105a1573d6000803e3d6000fd5b505050506040513d601f19601f820116820180604052508101906105c59190611c20565b50600360009054906101000a900473ffffffffffffffffffffffffffffffffffffffff1673ffffffffffffffffffffffffffffffffffffffff166396f4e9f9828b856040518463ffffffff1660e01b8152600401610624929190611b7a565b60206040518083038185885af1158015610642573d6000803e3d6000fd5b50505050506040513d601f19601f820116820180604052508101906106679190611c79565b94508867ffffffffffffffff16857fc15fb748c32ba4eb29c1c311e78533f93b4425eab49ea87c6fe4279ecadca0438a8a8a6000876040516106ad959493929190611ca6565b60405180910390a350505050949350505050565b6106c9610f94565b600047905060008103610708576040517fd0d04f6000000000000000000000000000000000000000000000000000000000815260040160405180910390fd5b60008273ffffffffffffffffffffffffffffffffffffffff168260405161072e90611d2a565b60006040518083038185875af1925050503d806000811461076b576040519150601f19603f3d011682016040523d82523d6000602084013e610770565b606091505b50509050806107ba573383836040517f9d11f5630000000000000000000000000000000000000000000000000000000081526004016107b193929190611d3f565b60405180910390fd5b505050565b600160009054906101000a900473ffffffffffffffffffffffffffffffffffffffff1673ffffffffffffffffffffffffffffffffffffffff163373ffffffffffffffffffffffffffffffffffffffff161461084f576040517f08c379a000000000000000000000000000000000000000000000000000000000815260040161084690611dd3565b60405180910390fd5b60008060009054906101000a900473ffffffffffffffffffffffffffffffffffffffff169050336000806101000a81548173ffffffffffffffffffffffffffffffffffffffff021916908373ffffffffffffffffffffffffffffffffffffffff1602179055506000600160006101000a81548173ffffffffffffffffffffffffffffffffffffffff021916908373ffffffffffffffffffffffffffffffffffffffff1602179055503373ffffffffffffffffffffffffffffffffffffffff168173ffffffffffffffffffffffffffffffffffffffff167f8be0079c531659141344cd1fd0a4f28419497f9722a3daafe3b4186f6b6457e060405160405180910390a350565b60008060009054906101000a900473ffffffffffffffffffffffffffffffffffffffff16905090565b6000610987610f94565b84600260008267ffffffffffffffff1667ffffffffffffffff16815260200190815260200160002060009054906101000a900460ff166109fe57806040517f0a503cdb0000000000000000000000000000000000000000000000000000000081526004016109f59190611948565b60405180910390fd5b84600073ffffffffffffffffffffffffffffffffffffffff168173ffffffffffffffffffffffffffffffffffffffff1603610a65576040517fa05ff47e00000000000000000000000000000000000000000000000000000000815260040160405180910390fd5b6000610a95878787600460009054906101000a900473ffffffffffffffffffffffffffffffffffffffff166110aa565b90506000600360009054906101000a900473ffffffffffffffffffffffffffffffffffffffff1673ffffffffffffffffffffffffffffffffffffffff166320487ded8a846040518363ffffffff1660e01b8152600401610af6929190611b7a565b602060405180830381865afa158015610b13573d6000803e3d6000fd5b505050506040513d601f19601f82011682018060405250810190610b37919061190c565b9050600460009054906101000a900473ffffffffffffffffffffffffffffffffffffffff1673ffffffffffffffffffffffffffffffffffffffff166370a08231306040518263ffffffff1660e01b8152600401610b949190611870565b602060405180830381865afa158015610bb1573d6000803e3d6000fd5b505050506040513d601f19601f82011682018060405250810190610bd5919061190c565b811115610cb657600460009054906101000a900473ffffffffffffffffffffffffffffffffffffffff1673ffffffffffffffffffffffffffffffffffffffff166370a08231306040518263ffffffff1660e01b8152600401610c379190611870565b602060405180830381865afa158015610c54573d6000803e3d6000fd5b505050506040513d601f19601f82011682018060405250810190610c78919061190c565b816040517f8f0f4206000000000000000000000000000000000000000000000000000000008152600401610cad929190611bb9565b60405180910390fd5b600460009054906101000a900473ffffffffffffffffffffffffffffffffffffffff1673ffffffffffffffffffffffffffffffffffffffff1663095ea7b3600360009054906101000a900473ffffffffffffffffffffffffffffffffffffffff16836040518363ffffffff1660e01b8152600401610d35929190611be2565b6020604051808303816000875af1158015610d54573d6000803e3d6000fd5b505050506040513d601f19601f82011682018060405250810190610d789190611c20565b508673ffffffffffffffffffffffffffffffffffffffff1663095ea7b3600360009054906101000a900473ffffffffffffffffffffffffffffffffffffffff16886040518363ffffffff1660e01b8152600401610dd6929190611be2565b6020604051808303816000875af1158015610df5573d6000803e3d6000fd5b505050506040513d601f19601f82011682018060405250810190610e199190611c20565b50600360009054906101000a900473ffffffffffffffffffffffffffffffffffffffff1673ffffffffffffffffffffffffffffffffffffffff166396f4e9f98a846040518363ffffffff1660e01b8152600401610e77929190611b7a565b6020604051808303816000875af1158015610e96573d6000803e3d6000fd5b505050506040513d601f19601f82011682018060405250810190610eba9190611c79565b94508867ffffffffffffffff16857fc15fb748c32ba4eb29c1c311e78533f93b4425eab49ea87c6fe4279ecadca0438a8a8a600460009054906101000a900473ffffffffffffffffffffffffffffffffffffffff1687604051610f21959493929190611ca6565b60405180910390a350505050949350505050565b610f3d610f94565b80600260008467ffffffffffffffff1667ffffffffffffffff16815260200190815260200160002060006101000a81548160ff0219169083151502179055505050565b610f88610f94565b610f91816111e8565b50565b60008054906101000a900473ffffffffffffffffffffffffffffffffffffffff1673ffffffffffffffffffffffffffffffffffffffff163373ffffffffffffffffffffffffffffffffffffffff1614611022576040517f08c379a000000000000000000000000000000000000000000000000000000000815260040161101990611e3f565b60405180910390fd5b565b6110a58363a9059cbb60e01b8484604051602401611043929190611be2565b604051602081830303815290604052907bffffffffffffffffffffffffffffffffffffffffffffffffffffffff19166020820180517bffffffffffffffffffffffffffffffffffffffffffffffffffffffff8381831617835250505050611314565b505050565b6110b26115a8565b6000600167ffffffffffffffff8111156110cf576110ce611e5f565b5b60405190808252806020026020018201604052801561110857816020015b6110f56115ed565b8152602001906001900390816110ed5790505b50905060405180604001604052808673ffffffffffffffffffffffffffffffffffffffff168152602001858152508160008151811061114a57611149611e8e565b5b60200260200101819052506040518060a00160405280876040516020016111719190611870565b604051602081830303815290604052815260200160405160200161119490611ee0565b60405160208183030381529060405281526020018281526020018473ffffffffffffffffffffffffffffffffffffffff16815260200160405180602001604052806000815250815250915050949350505050565b3373ffffffffffffffffffffffffffffffffffffffff168173ffffffffffffffffffffffffffffffffffffffff1603611256576040517f08c379a000000000000000000000000000000000000000000000000000000000815260040161124d90611f4c565b60405180910390fd5b80600160006101000a81548173ffffffffffffffffffffffffffffffffffffffff021916908373ffffffffffffffffffffffffffffffffffffffff1602179055508073ffffffffffffffffffffffffffffffffffffffff1660008054906101000a900473ffffffffffffffffffffffffffffffffffffffff1673ffffffffffffffffffffffffffffffffffffffff167fed8889f560326eb138920d842192f0eb3dd22b4f139c87a2c57538e05bae127860405160405180910390a350565b6000611376826040518060400160405280602081526020017f5361666545524332303a206c6f772d6c6576656c2063616c6c206661696c65648152508573ffffffffffffffffffffffffffffffffffffffff166113db9092919063ffffffff16565b90506000815111156113d657808060200190518101906113969190611c20565b6113d5576040517f08c379a00000000000000000000000000000000000000000000000000000000081526004016113cc90611fde565b60405180910390fd5b5b505050565b60606113ea84846000856113f3565b90509392505050565b606082471015611438576040517f08c379a000000000000000000000000000000000000000000000000000000000815260040161142f90612070565b60405180910390fd5b6000808673ffffffffffffffffffffffffffffffffffffffff16858760405161146191906120c1565b60006040518083038185875af1925050503d806000811461149e576040519150601f19603f3d011682016040523d82523d6000602084013e6114a3565b606091505b50915091506114b4878383876114c0565b92505050949350505050565b6060831561152257600083510361151a576114da85611535565b611519576040517f08c379a000000000000000000000000000000000000000000000000000000000815260040161151090612124565b60405180910390fd5b5b82905061152d565b61152c8383611558565b5b949350505050565b6000808273ffffffffffffffffffffffffffffffffffffffff163b119050919050565b60008251111561156b5781518083602001fd5b806040517f08c379a000000000000000000000000000000000000000000000000000000000815260040161159f9190612188565b60405180910390fd5b6040518060a00160405280606081526020016060815260200160608152602001600073ffffffffffffffffffffffffffffffffffffffff168152602001606081525090565b6040518060400160405280600073ffffffffffffffffffffffffffffffffffffffff168152602001600081525090565b600080fd5b600067ffffffffffffffff82169050919050565b61163f81611622565b811461164a57600080fd5b50565b60008135905061165c81611636565b92915050565b6000602082840312156116785761167761161d565b5b60006116868482850161164d565b91505092915050565b60008115159050919050565b6116a48161168f565b82525050565b60006020820190506116bf600083018461169b565b92915050565b600073ffffffffffffffffffffffffffffffffffffffff82169050919050565b60006116f0826116c5565b9050919050565b611700816116e5565b811461170b57600080fd5b50565b60008135905061171d816116f7565b92915050565b6000806040838503121561173a5761173961161d565b5b60006117488582860161170e565b92505060206117598582860161170e565b9150509250929050565b6000819050919050565b61177681611763565b811461178157600080fd5b50565b6000813590506117938161176d565b92915050565b600080600080608085870312156117b3576117b261161d565b5b60006117c18782880161164d565b94505060206117d28782880161170e565b93505060406117e38782880161170e565b92505060606117f487828801611784565b91505092959194509250565b6000819050919050565b61181381611800565b82525050565b600060208201905061182e600083018461180a565b92915050565b60006020828403121561184a5761184961161d565b5b60006118588482850161170e565b91505092915050565b61186a816116e5565b82525050565b60006020820190506118856000830184611861565b92915050565b6118948161168f565b811461189f57600080fd5b50565b6000813590506118b18161188b565b92915050565b600080604083850312156118ce576118cd61161d565b5b60006118dc8582860161164d565b92505060206118ed858286016118a2565b9150509250929050565b6000815190506119068161176d565b92915050565b6000602082840312156119225761192161161d565b5b6000611930848285016118f7565b91505092915050565b61194281611622565b82525050565b600060208201905061195d6000830184611939565b92915050565b600081519050919050565b600082825260208201905092915050565b60005b8381101561199d578082015181840152602081019050611982565b60008484015250505050565b6000601f19601f8301169050919050565b60006119c582611963565b6119cf818561196e565b93506119df81856020860161197f565b6119e8816119a9565b840191505092915050565b600081519050919050565b600082825260208201905092915050565b6000819050602082019050919050565b611a28816116e5565b82525050565b611a3781611763565b82525050565b604082016000820151611a536000850182611a1f565b506020820151611a666020850182611a2e565b50505050565b6000611a788383611a3d565b60408301905092915050565b6000602082019050919050565b6000611a9c826119f3565b611aa681856119fe565b9350611ab183611a0f565b8060005b83811015611ae2578151611ac98882611a6c565b9750611ad483611a84565b925050600181019050611ab5565b5085935050505092915050565b600060a0830160008301518482036000860152611b0c82826119ba565b91505060208301518482036020860152611b2682826119ba565b91505060408301518482036040860152611b408282611a91565b9150506060830151611b556060860182611a1f565b5060808301518482036080860152611b6d82826119ba565b9150508091505092915050565b6000604082019050611b8f6000830185611939565b8181036020830152611ba18184611aef565b90509392505050565b611bb381611763565b82525050565b6000604082019050611bce6000830185611baa565b611bdb6020830184611baa565b9392505050565b6000604082019050611bf76000830185611861565b611c046020830184611baa565b9392505050565b600081519050611c1a8161188b565b92915050565b600060208284031215611c3657611c3561161d565b5b6000611c4484828501611c0b565b91505092915050565b611c5681611800565b8114611c6157600080fd5b50565b600081519050611c7381611c4d565b92915050565b600060208284031215611c8f57611c8e61161d565b5b6000611c9d84828501611c64565b91505092915050565b600060a082019050611cbb6000830188611861565b611cc86020830187611861565b611cd56040830186611baa565b611ce26060830185611861565b611cef6080830184611baa565b9695505050505050565b600081905092915050565b50565b6000611d14600083611cf9565b9150611d1f82611d04565b600082019050919050565b6000611d3582611d07565b9150819050919050565b6000606082019050611d546000830186611861565b611d616020830185611861565b611d6e6040830184611baa565b949350505050565b600082825260208201905092915050565b7f4d7573742062652070726f706f736564206f776e657200000000000000000000600082015250565b6000611dbd601683611d76565b9150611dc882611d87565b602082019050919050565b60006020820190508181036000830152611dec81611db0565b9050919050565b7f4f6e6c792063616c6c61626c65206279206f776e657200000000000000000000600082015250565b6000611e29601683611d76565b9150611e3482611df3565b602082019050919050565b60006020820190508181036000830152611e5881611e1c565b9050919050565b7f4e487b7100000000000000000000000000000000000000000000000000000000600052604160045260246000fd5b7f4e487b7100000000000000000000000000000000000000000000000000000000600052603260045260246000fd5b6000611eca600083611d76565b9150611ed582611d04565b600082019050919050565b60006020820190508181036000830152611ef981611ebd565b9050919050565b7f43616e6e6f74207472616e7366657220746f2073656c66000000000000000000600082015250565b6000611f36601783611d76565b9150611f4182611f00565b602082019050919050565b60006020820190508181036000830152611f6581611f29565b9050919050565b7f5361666545524332303a204552433230206f7065726174696f6e20646964206e60008201527f6f74207375636365656400000000000000000000000000000000000000000000602082015250565b6000611fc8602a83611d76565b9150611fd382611f6c565b604082019050919050565b60006020820190508181036000830152611ff781611fbb565b9050919050565b7f416464726573733a20696e73756666696369656e742062616c616e636520666f60008201527f722063616c6c0000000000000000000000000000000000000000000000000000602082015250565b600061205a602683611d76565b915061206582611ffe565b604082019050919050565b600060208201905081810360008301526120898161204d565b9050919050565b600061209b82611963565b6120a58185611cf9565b93506120b581856020860161197f565b80840191505092915050565b60006120cd8284612090565b915081905092915050565b7f416464726573733a2063616c6c20746f206e6f6e2d636f6e7472616374000000600082015250565b600061210e601d83611d76565b9150612119826120d8565b602082019050919050565b6000602082019050818103600083015261213d81612101565b9050919050565b600081519050919050565b600061215a82612144565b6121648185611d76565b935061217481856020860161197f565b61217d816119a9565b840191505092915050565b600060208201905081810360008301526121a2818461214f565b90509291505056fea2646970667358221220cb9af96400f1f5a93fd136cdc28a54a66934efc0ba7a307cf72bbe2cecfb8f7564736f6c634300081b0033",
  "linkReferences": {},
  "deployedLinkReferences": {}
}